{
  "contractName": "PatientManagement",
  "abi": [
    {
      "inputs": [],
      "stateMutability": "nonpayable",
      "type": "constructor"
    },
    {
      "anonymous": false,
      "inputs": [
        {
          "indexed": false,
          "internalType": "address",
          "name": "_newOwner",
          "type": "address"
        }
      ],
      "name": "ChangeOwner",
      "type": "event"
    },
    {
      "anonymous": false,
      "inputs": [
        {
          "indexed": false,
          "internalType": "uint256",
          "name": "id",
          "type": "uint256"
        }
      ],
      "name": "NewPatient",
      "type": "event"
    },
    {
      "inputs": [],
      "name": "owner",
      "outputs": [
        {
          "internalType": "address",
          "name": "",
          "type": "address"
        }
      ],
      "stateMutability": "view",
      "type": "function"
    },
    {
      "inputs": [
        {
          "internalType": "address",
          "name": "_newOwner",
          "type": "address"
        }
      ],
      "name": "changeOwner",
      "outputs": [],
      "stateMutability": "nonpayable",
      "type": "function"
    },
    {
      "inputs": [
        {
          "internalType": "string",
          "name": "_name",
          "type": "string"
        },
        {
          "internalType": "uint256",
          "name": "_dob",
          "type": "uint256"
        },
        {
          "internalType": "string",
          "name": "_address",
          "type": "string"
        },
        {
          "internalType": "string",
          "name": "_email",
          "type": "string"
        },
        {
          "internalType": "uint256",
          "name": "_gender",
          "type": "uint256"
        },
        {
          "internalType": "string",
          "name": "_occupation",
          "type": "string"
        },
        {
          "internalType": "string",
          "name": "_emergencyContact",
          "type": "string"
        }
      ],
      "name": "addNewPatient",
      "outputs": [
        {
          "internalType": "uint256",
          "name": "",
          "type": "uint256"
        }
      ],
      "stateMutability": "nonpayable",
      "type": "function"
    },
    {
      "inputs": [
        {
          "internalType": "uint256",
          "name": "id",
          "type": "uint256"
        },
        {
          "internalType": "string",
          "name": "_newName",
          "type": "string"
        }
      ],
      "name": "updateName",
      "outputs": [],
      "stateMutability": "nonpayable",
      "type": "function"
    },
    {
      "inputs": [
        {
          "internalType": "uint256",
          "name": "id",
          "type": "uint256"
        }
      ],
      "name": "getName",
      "outputs": [
        {
          "internalType": "string",
          "name": "",
          "type": "string"
        }
      ],
      "stateMutability": "view",
      "type": "function"
    },
    {
      "inputs": [
        {
          "internalType": "uint256",
          "name": "id",
          "type": "uint256"
        },
        {
          "internalType": "uint256",
          "name": "_newDOB",
          "type": "uint256"
        }
      ],
      "name": "updateDOB",
      "outputs": [],
      "stateMutability": "nonpayable",
      "type": "function"
    },
    {
      "inputs": [
        {
          "internalType": "uint256",
          "name": "id",
          "type": "uint256"
        }
      ],
      "name": "getDOB",
      "outputs": [
        {
          "internalType": "uint256",
          "name": "",
          "type": "uint256"
        }
      ],
      "stateMutability": "view",
      "type": "function"
    },
    {
      "inputs": [
        {
          "internalType": "uint256",
          "name": "id",
          "type": "uint256"
        },
        {
          "internalType": "string",
          "name": "_newAddress",
          "type": "string"
        }
      ],
      "name": "updateAddress",
      "outputs": [],
      "stateMutability": "nonpayable",
      "type": "function"
    },
    {
      "inputs": [
        {
          "internalType": "uint256",
          "name": "id",
          "type": "uint256"
        }
      ],
      "name": "getAddress",
      "outputs": [
        {
          "internalType": "string",
          "name": "",
          "type": "string"
        }
      ],
      "stateMutability": "view",
      "type": "function"
    },
    {
      "inputs": [
        {
          "internalType": "uint256",
          "name": "id",
          "type": "uint256"
        },
        {
          "internalType": "string",
          "name": "_newEmail",
          "type": "string"
        }
      ],
      "name": "updateEmail",
      "outputs": [],
      "stateMutability": "nonpayable",
      "type": "function"
    },
    {
      "inputs": [
        {
          "internalType": "uint256",
          "name": "id",
          "type": "uint256"
        }
      ],
      "name": "getEmail",
      "outputs": [
        {
          "internalType": "string",
          "name": "",
          "type": "string"
        }
      ],
      "stateMutability": "view",
      "type": "function"
    },
    {
      "inputs": [
        {
          "internalType": "uint256",
          "name": "id",
          "type": "uint256"
        },
        {
          "internalType": "uint256",
          "name": "_newGender",
          "type": "uint256"
        }
      ],
      "name": "updateGender",
      "outputs": [],
      "stateMutability": "nonpayable",
      "type": "function"
    },
    {
      "inputs": [
        {
          "internalType": "uint256",
          "name": "id",
          "type": "uint256"
        }
      ],
      "name": "getGender",
      "outputs": [
        {
          "internalType": "uint256",
          "name": "",
          "type": "uint256"
        }
      ],
      "stateMutability": "view",
      "type": "function"
    },
    {
      "inputs": [
        {
          "internalType": "uint256",
          "name": "id",
          "type": "uint256"
        },
        {
          "internalType": "string",
          "name": "_newOccupation",
          "type": "string"
        }
      ],
      "name": "updateOccupation",
      "outputs": [],
      "stateMutability": "nonpayable",
      "type": "function"
    },
    {
      "inputs": [
        {
          "internalType": "uint256",
          "name": "id",
          "type": "uint256"
        }
      ],
      "name": "getOccupation",
      "outputs": [
        {
          "internalType": "string",
          "name": "",
          "type": "string"
        }
      ],
      "stateMutability": "view",
      "type": "function"
    },
    {
      "inputs": [
        {
          "internalType": "uint256",
          "name": "id",
          "type": "uint256"
        },
        {
          "internalType": "string",
          "name": "_newEmergencyContact",
          "type": "string"
        }
      ],
      "name": "updateEmergencyContact",
      "outputs": [],
      "stateMutability": "nonpayable",
      "type": "function"
    },
    {
      "inputs": [
        {
          "internalType": "uint256",
          "name": "id",
          "type": "uint256"
        }
      ],
      "name": "getEmergencyContact",
      "outputs": [
        {
          "internalType": "string",
          "name": "",
          "type": "string"
        }
      ],
      "stateMutability": "view",
      "type": "function"
    },
    {
      "inputs": [
        {
          "internalType": "uint256",
          "name": "id",
          "type": "uint256"
        },
        {
          "internalType": "bytes",
          "name": "_newPhone",
          "type": "bytes"
        }
      ],
      "name": "updatePhone",
      "outputs": [],
      "stateMutability": "nonpayable",
      "type": "function"
    },
    {
      "inputs": [
        {
          "internalType": "uint256",
          "name": "id",
          "type": "uint256"
        }
      ],
      "name": "getPhone",
      "outputs": [
        {
          "internalType": "bytes",
          "name": "",
          "type": "bytes"
        }
      ],
      "stateMutability": "view",
      "type": "function"
    },
    {
      "inputs": [
        {
          "internalType": "uint256",
          "name": "id",
          "type": "uint256"
        },
        {
          "internalType": "bytes",
          "name": "_creditCardNumber",
          "type": "bytes"
        }
      ],
      "name": "updateCreditCardNumber",
      "outputs": [],
      "stateMutability": "nonpayable",
      "type": "function"
    },
    {
      "inputs": [
        {
          "internalType": "uint256",
          "name": "id",
          "type": "uint256"
        }
      ],
      "name": "getCreditCardNumber",
      "outputs": [
        {
          "internalType": "bytes",
          "name": "",
          "type": "bytes"
        }
      ],
      "stateMutability": "view",
      "type": "function"
    },
    {
      "inputs": [
        {
          "internalType": "uint256",
          "name": "id",
          "type": "uint256"
        },
        {
          "internalType": "bytes",
          "name": "_bankInformation",
          "type": "bytes"
        }
      ],
      "name": "updateBankInformation",
      "outputs": [],
      "stateMutability": "nonpayable",
      "type": "function"
    },
    {
      "inputs": [
        {
          "internalType": "uint256",
          "name": "id",
          "type": "uint256"
        }
      ],
      "name": "getBankInformation",
      "outputs": [
        {
          "internalType": "bytes",
          "name": "",
          "type": "bytes"
        }
      ],
      "stateMutability": "view",
      "type": "function"
    },
    {
      "inputs": [
        {
          "internalType": "uint256",
          "name": "id",
          "type": "uint256"
        },
        {
          "internalType": "bytes",
          "name": "_allergies",
          "type": "bytes"
        }
      ],
      "name": "updateAllergies",
      "outputs": [],
      "stateMutability": "nonpayable",
      "type": "function"
    },
    {
      "inputs": [
        {
          "internalType": "uint256",
          "name": "id",
          "type": "uint256"
        }
      ],
      "name": "getAllergies",
      "outputs": [
        {
          "internalType": "bytes",
          "name": "",
          "type": "bytes"
        }
      ],
      "stateMutability": "view",
      "type": "function"
    },
    {
      "inputs": [
        {
          "internalType": "uint256",
          "name": "id",
          "type": "uint256"
        },
        {
          "internalType": "bytes",
          "name": "_pensionCardNumber",
          "type": "bytes"
        }
      ],
      "name": "updatePensionCardNumber",
      "outputs": [],
      "stateMutability": "nonpayable",
      "type": "function"
    },
    {
      "inputs": [
        {
          "internalType": "uint256",
          "name": "id",
          "type": "uint256"
        }
      ],
      "name": "getPensionCardNumber",
      "outputs": [
        {
          "internalType": "bytes",
          "name": "",
          "type": "bytes"
        }
      ],
      "stateMutability": "view",
      "type": "function"
    },
    {
      "inputs": [
        {
          "internalType": "uint256",
          "name": "id",
          "type": "uint256"
        },
        {
          "internalType": "bytes",
          "name": "_medicareNumber",
          "type": "bytes"
        }
      ],
      "name": "updateMedicareNumber",
      "outputs": [],
      "stateMutability": "nonpayable",
      "type": "function"
    },
    {
      "inputs": [
        {
          "internalType": "uint256",
          "name": "id",
          "type": "uint256"
        }
      ],
      "name": "getMedicareNumber",
      "outputs": [
        {
          "internalType": "bytes",
          "name": "",
          "type": "bytes"
        }
      ],
      "stateMutability": "view",
      "type": "function"
    },
    {
      "inputs": [
        {
          "internalType": "uint256",
          "name": "id",
          "type": "uint256"
        },
        {
          "internalType": "bytes",
          "name": "_nationality",
          "type": "bytes"
        }
      ],
      "name": "updateNationality",
      "outputs": [],
      "stateMutability": "nonpayable",
      "type": "function"
    },
    {
      "inputs": [
        {
          "internalType": "uint256",
          "name": "id",
          "type": "uint256"
        }
      ],
      "name": "getNationality",
      "outputs": [
        {
          "internalType": "bytes",
          "name": "",
          "type": "bytes"
        }
      ],
      "stateMutability": "view",
      "type": "function"
    },
    {
      "inputs": [
        {
          "internalType": "uint256",
          "name": "id",
          "type": "uint256"
        },
        {
          "internalType": "bytes",
          "name": "_maritalStatus",
          "type": "bytes"
        }
      ],
      "name": "updateMaritalStatus",
      "outputs": [],
      "stateMutability": "nonpayable",
      "type": "function"
    },
    {
      "inputs": [
        {
          "internalType": "uint256",
          "name": "id",
          "type": "uint256"
        }
      ],
      "name": "getMaritalStatus",
      "outputs": [
        {
          "internalType": "bytes",
          "name": "",
          "type": "bytes"
        }
      ],
      "stateMutability": "view",
      "type": "function"
    }
  ],
  "bytecode": "0x60806040523480156200001157600080fd5b50336000806101000a81548173ffffffffffffffffffffffffffffffffffffffff021916908373ffffffffffffffffffffffffffffffffffffffff1602179055506200005c62000277565b60405180602001604052806000815250816000018190525060018190806001815401808255809150506001900390600052602060002090601002016000909190919091506000820151816000019080519060200190620000be929190620002f4565b5060208201518160010155604082015181600201556060820151816003019080519060200190620000f1929190620002f4565b50608082015181600401908051906020019062000110929190620002f4565b5060a08201518160050190805190602001906200012f929190620002f4565b5060c08201518160060190805190602001906200014e929190620002f4565b5060e08201518160070190805190602001906200016d9291906200037b565b506101008201518160080190805190602001906200018d9291906200037b565b50610120820151816009019080519060200190620001ad9291906200037b565b5061014082015181600a019080519060200190620001cd9291906200037b565b5061016082015181600b019080519060200190620001ed9291906200037b565b5061018082015181600c0190805190602001906200020d9291906200037b565b506101a082015181600d0190805190602001906200022d9291906200037b565b506101c082015181600e0190805190602001906200024d9291906200037b565b506101e082015181600f0190805190602001906200026d9291906200037b565b505050506200042a565b604051806102000160405280606081526020016000815260200160008152602001606081526020016060815260200160608152602001606081526020016060815260200160608152602001606081526020016060815260200160608152602001606081526020016060815260200160608152602001606081525090565b828054600181600116156101000203166002900490600052602060002090601f016020900481019282601f106200033757805160ff191683800117855562000368565b8280016001018555821562000368579182015b82811115620003675782518255916020019190600101906200034a565b5b50905062000377919062000402565b5090565b828054600181600116156101000203166002900490600052602060002090601f016020900481019282601f10620003be57805160ff1916838001178555620003ef565b82800160010185558215620003ef579182015b82811115620003ee578251825591602001919060010190620003d1565b5b509050620003fe919062000402565b5090565b6200042791905b808211156200042357600081600090555060010162000409565b5090565b90565b614ae0806200043a6000396000f3fe608060405234801561001057600080fd5b50600436106101fb5760003560e01c8063883f77711161011a578063a2753464116100ad578063b93f9b0a1161007c578063b93f9b0a14611641578063c7527111146116e8578063de87fe57146117ad578063e06d2eb514611854578063f65c221e14611896576101fb565b8063a2753464146113ae578063a4afe76914611473578063a6f9dae114611538578063b19c94c91461157c576101fb565b80638e21ef05116100e95780638e21ef05146110f4578063901e1c19146111b9578063972fe8bc1461126057806397f6c84c14611307576101fb565b8063883f777114610e7957806389201fbe14610f3e5780638b27f14f14610fe55780638da5cb5b146110aa576101fb565b80636b8ff574116101925780637a7d62d0116101615780637a7d62d014610c2e5780637e63e2f214610cd5578063853feeae14610d7c5780638773fd7a14610db4576101fb565b80636b8ff574146109bb5780636beb005214610a6257806376c5f56014610b2757806379baf6a414610bec576101fb565b80633a540b17116101ce5780633a540b17146104ba578063511d1a13146104f257806351ae9c38146105b757806353e76f2c146108f6576101fb565b80631492d0341461020057806315b2d0f6146102a75780632e7d44b51461034e57806334d75779146103f5575b600080fd5b61022c6004803603602081101561021657600080fd5b810190808035906020019092919050505061193d565b6040518080602001828103825283818151815260200191508051906020019080838360005b8381101561026c578082015181840152602081019050610251565b50505050905090810190601f1680156102995780820380516001836020036101000a031916815260200191505b509250505060405180910390f35b6102d3600480360360208110156102bd57600080fd5b8101908080359060200190929190505050611a85565b6040518080602001828103825283818151815260200191508051906020019080838360005b838110156103135780820151818401526020810190506102f8565b50505050905090810190601f1680156103405780820380516001836020036101000a031916815260200191505b509250505060405180910390f35b61037a6004803603602081101561036457600080fd5b8101908080359060200190929190505050611bcd565b6040518080602001828103825283818151815260200191508051906020019080838360005b838110156103ba57808201518184015260208101905061039f565b50505050905090810190601f1680156103e75780820380516001836020036101000a031916815260200191505b509250505060405180910390f35b6104b86004803603604081101561040b57600080fd5b81019080803590602001909291908035906020019064010000000081111561043257600080fd5b82018360208201111561044457600080fd5b8035906020019184600183028401116401000000008311171561046657600080fd5b91908080601f016020809104026020016040519081016040528093929190818152602001838380828437600081840152601f19601f820116905080830192505050505050509192919290505050611d15565b005b6104f0600480360360408110156104d057600080fd5b810190808035906020019092919080359060200190929190505050611e9c565b005b6105b56004803603604081101561050857600080fd5b81019080803590602001909291908035906020019064010000000081111561052f57600080fd5b82018360208201111561054157600080fd5b8035906020019184600183028401116401000000008311171561056357600080fd5b91908080601f016020809104026020016040519081016040528093929190818152602001838380828437600081840152601f19601f820116905080830192505050505050509192919290505050612099565b005b6108e0600480360360e08110156105cd57600080fd5b81019080803590602001906401000000008111156105ea57600080fd5b8201836020820111156105fc57600080fd5b8035906020019184600183028401116401000000008311171561061e57600080fd5b91908080601f016020809104026020016040519081016040528093929190818152602001838380828437600081840152601f19601f820116905080830192505050505050509192919290803590602001909291908035906020019064010000000081111561068b57600080fd5b82018360208201111561069d57600080fd5b803590602001918460018302840111640100000000831117156106bf57600080fd5b91908080601f016020809104026020016040519081016040528093929190818152602001838380828437600081840152601f19601f8201169050808301925050505050505091929192908035906020019064010000000081111561072257600080fd5b82018360208201111561073457600080fd5b8035906020019184600183028401116401000000008311171561075657600080fd5b91908080601f016020809104026020016040519081016040528093929190818152602001838380828437600081840152601f19601f82011690508083019250505050505050919291929080359060200190929190803590602001906401000000008111156107c357600080fd5b8201836020820111156107d557600080fd5b803590602001918460018302840111640100000000831117156107f757600080fd5b91908080601f016020809104026020016040519081016040528093929190818152602001838380828437600081840152601f19601f8201169050808301925050505050505091929192908035906020019064010000000081111561085a57600080fd5b82018360208201111561086c57600080fd5b8035906020019184600183028401116401000000008311171561088e57600080fd5b91908080601f016020809104026020016040519081016040528093929190818152602001838380828437600081840152601f19601f820116905080830192505050505050509192919290505050612220565b6040518082815260200191505060405180910390f35b6109b96004803603604081101561090c57600080fd5b81019080803590602001909291908035906020019064010000000081111561093357600080fd5b82018360208201111561094557600080fd5b8035906020019184600183028401116401000000008311171561096757600080fd5b91908080601f016020809104026020016040519081016040528093929190818152602001838380828437600081840152601f19601f8201169050808301925050505050505091929192905050506125e6565b005b6109e7600480360360208110156109d157600080fd5b810190808035906020019092919050505061276d565b6040518080602001828103825283818151815260200191508051906020019080838360005b83811015610a27578082015181840152602081019050610a0c565b50505050905090810190601f168015610a545780820380516001836020036101000a031916815260200191505b509250505060405180910390f35b610b2560048036036040811015610a7857600080fd5b810190808035906020019092919080359060200190640100000000811115610a9f57600080fd5b820183602082011115610ab157600080fd5b80359060200191846001830284011164010000000083111715610ad357600080fd5b91908080601f016020809104026020016040519081016040528093929190818152602001838380828437600081840152601f19601f8201169050808301925050505050505091929192905050506128b5565b005b610bea60048036036040811015610b3d57600080fd5b810190808035906020019092919080359060200190640100000000811115610b6457600080fd5b820183602082011115610b7657600080fd5b80359060200191846001830284011164010000000083111715610b9857600080fd5b91908080601f016020809104026020016040519081016040528093929190818152602001838380828437600081840152601f19601f820116905080830192505050505050509192919290505050612a3c565b005b610c1860048036036020811015610c0257600080fd5b8101908080359060200190929190505050612bc3565b6040518082815260200191505060405180910390f35b610c5a60048036036020811015610c4457600080fd5b8101908080359060200190929190505050612c73565b6040518080602001828103825283818151815260200191508051906020019080838360005b83811015610c9a578082015181840152602081019050610c7f565b50505050905090810190601f168015610cc75780820380516001836020036101000a031916815260200191505b509250505060405180910390f35b610d0160048036036020811015610ceb57600080fd5b8101908080359060200190929190505050612dbb565b6040518080602001828103825283818151815260200191508051906020019080838360005b83811015610d41578082015181840152602081019050610d26565b50505050905090810190601f168015610d6e5780820380516001836020036101000a031916815260200191505b509250505060405180910390f35b610db260048036036040811015610d9257600080fd5b810190808035906020019092919080359060200190929190505050612f03565b005b610e7760048036036040811015610dca57600080fd5b810190808035906020019092919080359060200190640100000000811115610df157600080fd5b820183602082011115610e0357600080fd5b80359060200191846001830284011164010000000083111715610e2557600080fd5b91908080601f016020809104026020016040519081016040528093929190818152602001838380828437600081840152601f19601f82011690508083019250505050505050919291929050505061307a565b005b610f3c60048036036040811015610e8f57600080fd5b810190808035906020019092919080359060200190640100000000811115610eb657600080fd5b820183602082011115610ec857600080fd5b80359060200191846001830284011164010000000083111715610eea57600080fd5b91908080601f016020809104026020016040519081016040528093929190818152602001838380828437600081840152601f19601f820116905080830192505050505050509192919290505050613201565b005b610f6a60048036036020811015610f5457600080fd5b8101908080359060200190929190505050613388565b6040518080602001828103825283818151815260200191508051906020019080838360005b83811015610faa578082015181840152602081019050610f8f565b50505050905090810190601f168015610fd75780820380516001836020036101000a031916815260200191505b509250505060405180910390f35b6110a860048036036040811015610ffb57600080fd5b81019080803590602001909291908035906020019064010000000081111561102257600080fd5b82018360208201111561103457600080fd5b8035906020019184600183028401116401000000008311171561105657600080fd5b91908080601f016020809104026020016040519081016040528093929190818152602001838380828437600081840152601f19601f8201169050808301925050505050505091929192905050506134d0565b005b6110b2613657565b604051808273ffffffffffffffffffffffffffffffffffffffff1673ffffffffffffffffffffffffffffffffffffffff16815260200191505060405180910390f35b6111b76004803603604081101561110a57600080fd5b81019080803590602001909291908035906020019064010000000081111561113157600080fd5b82018360208201111561114357600080fd5b8035906020019184600183028401116401000000008311171561116557600080fd5b91908080601f016020809104026020016040519081016040528093929190818152602001838380828437600081840152601f19601f82011690508083019250505050505050919291929050505061367c565b005b6111e5600480360360208110156111cf57600080fd5b8101908080359060200190929190505050613803565b6040518080602001828103825283818151815260200191508051906020019080838360005b8381101561122557808201518184015260208101905061120a565b50505050905090810190601f1680156112525780820380516001836020036101000a031916815260200191505b509250505060405180910390f35b61128c6004803603602081101561127657600080fd5b810190808035906020019092919050505061394b565b6040518080602001828103825283818151815260200191508051906020019080838360005b838110156112cc5780820151818401526020810190506112b1565b50505050905090810190601f1680156112f95780820380516001836020036101000a031916815260200191505b509250505060405180910390f35b6113336004803603602081101561131d57600080fd5b8101908080359060200190929190505050613a93565b6040518080602001828103825283818151815260200191508051906020019080838360005b83811015611373578082015181840152602081019050611358565b50505050905090810190601f1680156113a05780820380516001836020036101000a031916815260200191505b509250505060405180910390f35b611471600480360360408110156113c457600080fd5b8101908080359060200190929190803590602001906401000000008111156113eb57600080fd5b8201836020820111156113fd57600080fd5b8035906020019184600183028401116401000000008311171561141f57600080fd5b91908080601f016020809104026020016040519081016040528093929190818152602001838380828437600081840152601f19601f820116905080830192505050505050509192919290505050613bdb565b005b6115366004803603604081101561148957600080fd5b8101908080359060200190929190803590602001906401000000008111156114b057600080fd5b8201836020820111156114c257600080fd5b803590602001918460018302840111640100000000831117156114e457600080fd5b91908080601f016020809104026020016040519081016040528093929190818152602001838380828437600081840152601f19601f820116905080830192505050505050509192919290505050613d62565b005b61157a6004803603602081101561154e57600080fd5b81019080803573ffffffffffffffffffffffffffffffffffffffff169060200190929190505050613ee9565b005b61163f6004803603604081101561159257600080fd5b8101908080359060200190929190803590602001906401000000008111156115b957600080fd5b8201836020820111156115cb57600080fd5b803590602001918460018302840111640100000000831117156115ed57600080fd5b91908080601f016020809104026020016040519081016040528093929190818152602001838380828437600081840152601f19601f820116905080830192505050505050509192919290505050614072565b005b61166d6004803603602081101561165757600080fd5b81019080803590602001909291905050506141f9565b6040518080602001828103825283818151815260200191508051906020019080838360005b838110156116ad578082015181840152602081019050611692565b50505050905090810190601f1680156116da5780820380516001836020036101000a031916815260200191505b509250505060405180910390f35b6117ab600480360360408110156116fe57600080fd5b81019080803590602001909291908035906020019064010000000081111561172557600080fd5b82018360208201111561173757600080fd5b8035906020019184600183028401116401000000008311171561175957600080fd5b91908080601f016020809104026020016040519081016040528093929190818152602001838380828437600081840152601f19601f820116905080830192505050505050509192919290505050614341565b005b6117d9600480360360208110156117c357600080fd5b81019080803590602001909291905050506144c8565b6040518080602001828103825283818151815260200191508051906020019080838360005b838110156118195780820151818401526020810190506117fe565b50505050905090810190601f1680156118465780820380516001836020036101000a031916815260200191505b509250505060405180910390f35b6118806004803603602081101561186a57600080fd5b8101908080359060200190929190505050614610565b6040518082815260200191505060405180910390f35b6118c2600480360360208110156118ac57600080fd5b81019080803590602001909291905050506146c0565b6040518080602001828103825283818151815260200191508051906020019080838360005b838110156119025780820151818401526020810190506118e7565b50505050905090810190601f16801561192f5780820380516001836020036101000a031916815260200191505b509250505060405180910390f35b606081600081118015611954575060018054905081105b6119c6576040517f08c379a000000000000000000000000000000000000000000000000000000000815260040180806020018281038252600a8152602001807f496e76616c69642069640000000000000000000000000000000000000000000081525060200191505060405180910390fd5b600183815481106119d357fe5b90600052602060002090601002016009018054600181600116156101000203166002900480601f016020809104026020016040519081016040528092919081815260200182805460018160011615610100020316600290048015611a785780601f10611a4d57610100808354040283529160200191611a78565b820191906000526020600020905b815481529060010190602001808311611a5b57829003601f168201915b5050505050915050919050565b606081600081118015611a9c575060018054905081105b611b0e576040517f08c379a000000000000000000000000000000000000000000000000000000000815260040180806020018281038252600a8152602001807f496e76616c69642069640000000000000000000000000000000000000000000081525060200191505060405180910390fd5b60018381548110611b1b57fe5b90600052602060002090601002016005018054600181600116156101000203166002900480601f016020809104026020016040519081016040528092919081815260200182805460018160011615610100020316600290048015611bc05780601f10611b9557610100808354040283529160200191611bc0565b820191906000526020600020905b815481529060010190602001808311611ba357829003601f168201915b5050505050915050919050565b606081600081118015611be4575060018054905081105b611c56576040517f08c379a000000000000000000000000000000000000000000000000000000000815260040180806020018281038252600a8152602001807f496e76616c69642069640000000000000000000000000000000000000000000081525060200191505060405180910390fd5b60018381548110611c6357fe5b90600052602060002090601002016008018054600181600116156101000203166002900480601f016020809104026020016040519081016040528092919081815260200182805460018160011615610100020316600290048015611d085780601f10611cdd57610100808354040283529160200191611d08565b820191906000526020600020905b815481529060010190602001808311611ceb57829003601f168201915b5050505050915050919050565b6000809054906101000a900473ffffffffffffffffffffffffffffffffffffffff1673ffffffffffffffffffffffffffffffffffffffff163373ffffffffffffffffffffffffffffffffffffffff1614611dd7576040517f08c379a00000000000000000000000000000000000000000000000000000000081526004018080602001828103825260098152602001807f4e6f74206f776e6572000000000000000000000000000000000000000000000081525060200191505060405180910390fd5b81600081118015611dec575060018054905081105b611e5e576040517f08c379a000000000000000000000000000000000000000000000000000000000815260040180806020018281038252600a8152602001807f496e76616c69642069640000000000000000000000000000000000000000000081525060200191505060405180910390fd5b600060018481548110611e6d57fe5b9060005260206000209060100201905082816009019080519060200190611e95929190614808565b5050505050565b6000809054906101000a900473ffffffffffffffffffffffffffffffffffffffff1673ffffffffffffffffffffffffffffffffffffffff163373ffffffffffffffffffffffffffffffffffffffff1614611f5e576040517f08c379a00000000000000000000000000000000000000000000000000000000081526004018080602001828103825260098152602001807f4e6f74206f776e6572000000000000000000000000000000000000000000000081525060200191505060405180910390fd5b81600081118015611f73575060018054905081105b611fe5576040517f08c379a000000000000000000000000000000000000000000000000000000000815260040180806020018281038252600a8152602001807f496e76616c69642069640000000000000000000000000000000000000000000081525060200191505060405180910390fd5b8160018110158015611ff8575060038111155b61206a576040517f08c379a000000000000000000000000000000000000000000000000000000000815260040180806020018281038252600e8152602001807f496e76616c69642067656e64657200000000000000000000000000000000000081525060200191505060405180910390fd5b60006001858154811061207957fe5b906000526020600020906010020190508381600201819055505050505050565b6000809054906101000a900473ffffffffffffffffffffffffffffffffffffffff1673ffffffffffffffffffffffffffffffffffffffff163373ffffffffffffffffffffffffffffffffffffffff161461215b576040517f08c379a00000000000000000000000000000000000000000000000000000000081526004018080602001828103825260098152602001807f4e6f74206f776e6572000000000000000000000000000000000000000000000081525060200191505060405180910390fd5b81600081118015612170575060018054905081105b6121e2576040517f08c379a000000000000000000000000000000000000000000000000000000000815260040180806020018281038252600a8152602001807f496e76616c69642069640000000000000000000000000000000000000000000081525060200191505060405180910390fd5b6000600184815481106121f157fe5b9060005260206000209060100201905082816006019080519060200190612219929190614888565b5050505050565b60008360018110158015612235575060038111155b6122a7576040517f08c379a000000000000000000000000000000000000000000000000000000000815260040180806020018281038252600e8152602001807f496e76616c69642067656e64657200000000000000000000000000000000000081525060200191505060405180910390fd5b6000809054906101000a900473ffffffffffffffffffffffffffffffffffffffff1673ffffffffffffffffffffffffffffffffffffffff163373ffffffffffffffffffffffffffffffffffffffff1614612369576040517f08c379a00000000000000000000000000000000000000000000000000000000081526004018080602001828103825260098152602001807f4e6f74206f776e6572000000000000000000000000000000000000000000000081525060200191505060405180910390fd5b612371614908565b8981600001819052508881602001818152505087816060018190525086816080018190525085816040018181525050848160a00181905250838160c00181905250600181908060018154018082558091505060019003906000526020600020906010020160009091909190915060008201518160000190805190602001906123fa929190614985565b506020820151816001015560408201518160020155606082015181600301908051906020019061242b929190614985565b506080820151816004019080519060200190612448929190614985565b5060a0820151816005019080519060200190612465929190614985565b5060c0820151816006019080519060200190612482929190614985565b5060e082015181600701908051906020019061249f929190614a05565b506101008201518160080190805190602001906124bd929190614a05565b506101208201518160090190805190602001906124db929190614a05565b5061014082015181600a0190805190602001906124f9929190614a05565b5061016082015181600b019080519060200190612517929190614a05565b5061018082015181600c019080519060200190612535929190614a05565b506101a082015181600d019080519060200190612553929190614a05565b506101c082015181600e019080519060200190612571929190614a05565b506101e082015181600f01908051906020019061258f929190614a05565b5050506000600180805490500390507f9b2413f38c6ca4933c9191c8c9d105f0fa36b014751a8ae77ec7076dc720f153816040518082815260200191505060405180910390a1809350505050979650505050505050565b6000809054906101000a900473ffffffffffffffffffffffffffffffffffffffff1673ffffffffffffffffffffffffffffffffffffffff163373ffffffffffffffffffffffffffffffffffffffff16146126a8576040517f08c379a00000000000000000000000000000000000000000000000000000000081526004018080602001828103825260098152602001807f4e6f74206f776e6572000000000000000000000000000000000000000000000081525060200191505060405180910390fd5b816000811180156126bd575060018054905081105b61272f576040517f08c379a000000000000000000000000000000000000000000000000000000000815260040180806020018281038252600a8152602001807f496e76616c69642069640000000000000000000000000000000000000000000081525060200191505060405180910390fd5b60006001848154811061273e57fe5b9060005260206000209060100201905082816000019080519060200190612766929190614888565b5050505050565b606081600081118015612784575060018054905081105b6127f6576040517f08c379a000000000000000000000000000000000000000000000000000000000815260040180806020018281038252600a8152602001807f496e76616c69642069640000000000000000000000000000000000000000000081525060200191505060405180910390fd5b6001838154811061280357fe5b90600052602060002090601002016000018054600181600116156101000203166002900480601f0160208091040260200160405190810160405280929190818152602001828054600181600116156101000203166002900480156128a85780601f1061287d576101008083540402835291602001916128a8565b820191906000526020600020905b81548152906001019060200180831161288b57829003601f168201915b5050505050915050919050565b6000809054906101000a900473ffffffffffffffffffffffffffffffffffffffff1673ffffffffffffffffffffffffffffffffffffffff163373ffffffffffffffffffffffffffffffffffffffff1614612977576040517f08c379a00000000000000000000000000000000000000000000000000000000081526004018080602001828103825260098152602001807f4e6f74206f776e6572000000000000000000000000000000000000000000000081525060200191505060405180910390fd5b8160008111801561298c575060018054905081105b6129fe576040517f08c379a000000000000000000000000000000000000000000000000000000000815260040180806020018281038252600a8152602001807f496e76616c69642069640000000000000000000000000000000000000000000081525060200191505060405180910390fd5b600060018481548110612a0d57fe5b906000526020600020906010020190508281600a019080519060200190612a35929190614808565b5050505050565b6000809054906101000a900473ffffffffffffffffffffffffffffffffffffffff1673ffffffffffffffffffffffffffffffffffffffff163373ffffffffffffffffffffffffffffffffffffffff1614612afe576040517f08c379a00000000000000000000000000000000000000000000000000000000081526004018080602001828103825260098152602001807f4e6f74206f776e6572000000000000000000000000000000000000000000000081525060200191505060405180910390fd5b81600081118015612b13575060018054905081105b612b85576040517f08c379a000000000000000000000000000000000000000000000000000000000815260040180806020018281038252600a8152602001807f496e76616c69642069640000000000000000000000000000000000000000000081525060200191505060405180910390fd5b600060018481548110612b9457fe5b9060005260206000209060100201905082816003019080519060200190612bbc929190614888565b5050505050565b600081600081118015612bda575060018054905081105b612c4c576040517f08c379a000000000000000000000000000000000000000000000000000000000815260040180806020018281038252600a8152602001807f496e76616c69642069640000000000000000000000000000000000000000000081525060200191505060405180910390fd5b60018381548110612c5957fe5b906000526020600020906010020160010154915050919050565b606081600081118015612c8a575060018054905081105b612cfc576040517f08c379a000000000000000000000000000000000000000000000000000000000815260040180806020018281038252600a8152602001807f496e76616c69642069640000000000000000000000000000000000000000000081525060200191505060405180910390fd5b60018381548110612d0957fe5b9060005260206000209060100201600a018054600181600116156101000203166002900480601f016020809104026020016040519081016040528092919081815260200182805460018160011615610100020316600290048015612dae5780601f10612d8357610100808354040283529160200191612dae565b820191906000526020600020905b815481529060010190602001808311612d9157829003601f168201915b5050505050915050919050565b606081600081118015612dd2575060018054905081105b612e44576040517f08c379a000000000000000000000000000000000000000000000000000000000815260040180806020018281038252600a8152602001807f496e76616c69642069640000000000000000000000000000000000000000000081525060200191505060405180910390fd5b60018381548110612e5157fe5b9060005260206000209060100201600f018054600181600116156101000203166002900480601f016020809104026020016040519081016040528092919081815260200182805460018160011615610100020316600290048015612ef65780601f10612ecb57610100808354040283529160200191612ef6565b820191906000526020600020905b815481529060010190602001808311612ed957829003601f168201915b5050505050915050919050565b6000809054906101000a900473ffffffffffffffffffffffffffffffffffffffff1673ffffffffffffffffffffffffffffffffffffffff163373ffffffffffffffffffffffffffffffffffffffff1614612fc5576040517f08c379a00000000000000000000000000000000000000000000000000000000081526004018080602001828103825260098152602001807f4e6f74206f776e6572000000000000000000000000000000000000000000000081525060200191505060405180910390fd5b81600081118015612fda575060018054905081105b61304c576040517f08c379a000000000000000000000000000000000000000000000000000000000815260040180806020018281038252600a8152602001807f496e76616c69642069640000000000000000000000000000000000000000000081525060200191505060405180910390fd5b60006001848154811061305b57fe5b9060005260206000209060100201905082816001018190555050505050565b6000809054906101000a900473ffffffffffffffffffffffffffffffffffffffff1673ffffffffffffffffffffffffffffffffffffffff163373ffffffffffffffffffffffffffffffffffffffff161461313c576040517f08c379a00000000000000000000000000000000000000000000000000000000081526004018080602001828103825260098152602001807f4e6f74206f776e6572000000000000000000000000000000000000000000000081525060200191505060405180910390fd5b81600081118015613151575060018054905081105b6131c3576040517f08c379a000000000000000000000000000000000000000000000000000000000815260040180806020018281038252600a8152602001807f496e76616c69642069640000000000000000000000000000000000000000000081525060200191505060405180910390fd5b6000600184815481106131d257fe5b90600052602060002090601002019050828160080190805190602001906131fa929190614808565b5050505050565b6000809054906101000a900473ffffffffffffffffffffffffffffffffffffffff1673ffffffffffffffffffffffffffffffffffffffff163373ffffffffffffffffffffffffffffffffffffffff16146132c3576040517f08c379a00000000000000000000000000000000000000000000000000000000081526004018080602001828103825260098152602001807f4e6f74206f776e6572000000000000000000000000000000000000000000000081525060200191505060405180910390fd5b816000811180156132d8575060018054905081105b61334a576040517f08c379a000000000000000000000000000000000000000000000000000000000815260040180806020018281038252600a8152602001807f496e76616c69642069640000000000000000000000000000000000000000000081525060200191505060405180910390fd5b60006001848154811061335957fe5b906000526020600020906010020190508281600b019080519060200190613381929190614808565b5050505050565b60608160008111801561339f575060018054905081105b613411576040517f08c379a000000000000000000000000000000000000000000000000000000000815260040180806020018281038252600a8152602001807f496e76616c69642069640000000000000000000000000000000000000000000081525060200191505060405180910390fd5b6001838154811061341e57fe5b90600052602060002090601002016006018054600181600116156101000203166002900480601f0160208091040260200160405190810160405280929190818152602001828054600181600116156101000203166002900480156134c35780601f10613498576101008083540402835291602001916134c3565b820191906000526020600020905b8154815290600101906020018083116134a657829003601f168201915b5050505050915050919050565b6000809054906101000a900473ffffffffffffffffffffffffffffffffffffffff1673ffffffffffffffffffffffffffffffffffffffff163373ffffffffffffffffffffffffffffffffffffffff1614613592576040517f08c379a00000000000000000000000000000000000000000000000000000000081526004018080602001828103825260098152602001807f4e6f74206f776e6572000000000000000000000000000000000000000000000081525060200191505060405180910390fd5b816000811180156135a7575060018054905081105b613619576040517f08c379a000000000000000000000000000000000000000000000000000000000815260040180806020018281038252600a8152602001807f496e76616c69642069640000000000000000000000000000000000000000000081525060200191505060405180910390fd5b60006001848154811061362857fe5b906000526020600020906010020190508281600c019080519060200190613650929190614808565b5050505050565b6000809054906101000a900473ffffffffffffffffffffffffffffffffffffffff1681565b6000809054906101000a900473ffffffffffffffffffffffffffffffffffffffff1673ffffffffffffffffffffffffffffffffffffffff163373ffffffffffffffffffffffffffffffffffffffff161461373e576040517f08c379a00000000000000000000000000000000000000000000000000000000081526004018080602001828103825260098152602001807f4e6f74206f776e6572000000000000000000000000000000000000000000000081525060200191505060405180910390fd5b81600081118015613753575060018054905081105b6137c5576040517f08c379a000000000000000000000000000000000000000000000000000000000815260040180806020018281038252600a8152602001807f496e76616c69642069640000000000000000000000000000000000000000000081525060200191505060405180910390fd5b6000600184815481106137d457fe5b906000526020600020906010020190508281600d0190805190602001906137fc929190614808565b5050505050565b60608160008111801561381a575060018054905081105b61388c576040517f08c379a000000000000000000000000000000000000000000000000000000000815260040180806020018281038252600a8152602001807f496e76616c69642069640000000000000000000000000000000000000000000081525060200191505060405180910390fd5b6001838154811061389957fe5b9060005260206000209060100201600d018054600181600116156101000203166002900480601f01602080910402602001604051908101604052809291908181526020018280546001816001161561010002031660029004801561393e5780601f106139135761010080835404028352916020019161393e565b820191906000526020600020905b81548152906001019060200180831161392157829003601f168201915b5050505050915050919050565b606081600081118015613962575060018054905081105b6139d4576040517f08c379a000000000000000000000000000000000000000000000000000000000815260040180806020018281038252600a8152602001807f496e76616c69642069640000000000000000000000000000000000000000000081525060200191505060405180910390fd5b600183815481106139e157fe5b90600052602060002090601002016004018054600181600116156101000203166002900480601f016020809104026020016040519081016040528092919081815260200182805460018160011615610100020316600290048015613a865780601f10613a5b57610100808354040283529160200191613a86565b820191906000526020600020905b815481529060010190602001808311613a6957829003601f168201915b5050505050915050919050565b606081600081118015613aaa575060018054905081105b613b1c576040517f08c379a000000000000000000000000000000000000000000000000000000000815260040180806020018281038252600a8152602001807f496e76616c69642069640000000000000000000000000000000000000000000081525060200191505060405180910390fd5b60018381548110613b2957fe5b9060005260206000209060100201600b018054600181600116156101000203166002900480601f016020809104026020016040519081016040528092919081815260200182805460018160011615610100020316600290048015613bce5780601f10613ba357610100808354040283529160200191613bce565b820191906000526020600020905b815481529060010190602001808311613bb157829003601f168201915b5050505050915050919050565b6000809054906101000a900473ffffffffffffffffffffffffffffffffffffffff1673ffffffffffffffffffffffffffffffffffffffff163373ffffffffffffffffffffffffffffffffffffffff1614613c9d576040517f08c379a00000000000000000000000000000000000000000000000000000000081526004018080602001828103825260098152602001807f4e6f74206f776e6572000000000000000000000000000000000000000000000081525060200191505060405180910390fd5b81600081118015613cb2575060018054905081105b613d24576040517f08c379a000000000000000000000000000000000000000000000000000000000815260040180806020018281038252600a8152602001807f496e76616c69642069640000000000000000000000000000000000000000000081525060200191505060405180910390fd5b600060018481548110613d3357fe5b9060005260206000209060100201905082816004019080519060200190613d5b929190614888565b5050505050565b6000809054906101000a900473ffffffffffffffffffffffffffffffffffffffff1673ffffffffffffffffffffffffffffffffffffffff163373ffffffffffffffffffffffffffffffffffffffff1614613e24576040517f08c379a00000000000000000000000000000000000000000000000000000000081526004018080602001828103825260098152602001807f4e6f74206f776e6572000000000000000000000000000000000000000000000081525060200191505060405180910390fd5b81600081118015613e39575060018054905081105b613eab576040517f08c379a000000000000000000000000000000000000000000000000000000000815260040180806020018281038252600a8152602001807f496e76616c69642069640000000000000000000000000000000000000000000081525060200191505060405180910390fd5b600060018481548110613eba57fe5b9060005260206000209060100201905082816005019080519060200190613ee2929190614888565b5050505050565b6000809054906101000a900473ffffffffffffffffffffffffffffffffffffffff1673ffffffffffffffffffffffffffffffffffffffff163373ffffffffffffffffffffffffffffffffffffffff1614613fab576040517f08c379a00000000000000000000000000000000000000000000000000000000081526004018080602001828103825260098152602001807f4e6f74206f776e6572000000000000000000000000000000000000000000000081525060200191505060405180910390fd5b806000806101000a81548173ffffffffffffffffffffffffffffffffffffffff021916908373ffffffffffffffffffffffffffffffffffffffff1602179055507ff285329298fd841af46eb83bbe90d1ebe2951c975a65b19a02f965f842ee69c56000809054906101000a900473ffffffffffffffffffffffffffffffffffffffff16604051808273ffffffffffffffffffffffffffffffffffffffff1673ffffffffffffffffffffffffffffffffffffffff16815260200191505060405180910390a150565b6000809054906101000a900473ffffffffffffffffffffffffffffffffffffffff1673ffffffffffffffffffffffffffffffffffffffff163373ffffffffffffffffffffffffffffffffffffffff1614614134576040517f08c379a00000000000000000000000000000000000000000000000000000000081526004018080602001828103825260098152602001807f4e6f74206f776e6572000000000000000000000000000000000000000000000081525060200191505060405180910390fd5b81600081118015614149575060018054905081105b6141bb576040517f08c379a000000000000000000000000000000000000000000000000000000000815260040180806020018281038252600a8152602001807f496e76616c69642069640000000000000000000000000000000000000000000081525060200191505060405180910390fd5b6000600184815481106141ca57fe5b906000526020600020906010020190508281600f0190805190602001906141f2929190614808565b5050505050565b606081600081118015614210575060018054905081105b614282576040517f08c379a000000000000000000000000000000000000000000000000000000000815260040180806020018281038252600a8152602001807f496e76616c69642069640000000000000000000000000000000000000000000081525060200191505060405180910390fd5b6001838154811061428f57fe5b90600052602060002090601002016003018054600181600116156101000203166002900480601f0160208091040260200160405190810160405280929190818152602001828054600181600116156101000203166002900480156143345780601f1061430957610100808354040283529160200191614334565b820191906000526020600020905b81548152906001019060200180831161431757829003601f168201915b5050505050915050919050565b6000809054906101000a900473ffffffffffffffffffffffffffffffffffffffff1673ffffffffffffffffffffffffffffffffffffffff163373ffffffffffffffffffffffffffffffffffffffff1614614403576040517f08c379a00000000000000000000000000000000000000000000000000000000081526004018080602001828103825260098152602001807f4e6f74206f776e6572000000000000000000000000000000000000000000000081525060200191505060405180910390fd5b81600081118015614418575060018054905081105b61448a576040517f08c379a000000000000000000000000000000000000000000000000000000000815260040180806020018281038252600a8152602001807f496e76616c69642069640000000000000000000000000000000000000000000081525060200191505060405180910390fd5b60006001848154811061449957fe5b906000526020600020906010020190508281600e0190805190602001906144c1929190614808565b5050505050565b6060816000811180156144df575060018054905081105b614551576040517f08c379a000000000000000000000000000000000000000000000000000000000815260040180806020018281038252600a8152602001807f496e76616c69642069640000000000000000000000000000000000000000000081525060200191505060405180910390fd5b6001838154811061455e57fe5b9060005260206000209060100201600e018054600181600116156101000203166002900480601f0160208091040260200160405190810160405280929190818152602001828054600181600116156101000203166002900480156146035780601f106145d857610100808354040283529160200191614603565b820191906000526020600020905b8154815290600101906020018083116145e657829003601f168201915b5050505050915050919050565b600081600081118015614627575060018054905081105b614699576040517f08c379a000000000000000000000000000000000000000000000000000000000815260040180806020018281038252600a8152602001807f496e76616c69642069640000000000000000000000000000000000000000000081525060200191505060405180910390fd5b600183815481106146a657fe5b906000526020600020906010020160020154915050919050565b6060816000811180156146d7575060018054905081105b614749576040517f08c379a000000000000000000000000000000000000000000000000000000000815260040180806020018281038252600a8152602001807f496e76616c69642069640000000000000000000000000000000000000000000081525060200191505060405180910390fd5b6001838154811061475657fe5b9060005260206000209060100201600c018054600181600116156101000203166002900480601f0160208091040260200160405190810160405280929190818152602001828054600181600116156101000203166002900480156147fb5780601f106147d0576101008083540402835291602001916147fb565b820191906000526020600020905b8154815290600101906020018083116147de57829003601f168201915b5050505050915050919050565b828054600181600116156101000203166002900490600052602060002090601f016020900481019282601f1061484957805160ff1916838001178555614877565b82800160010185558215614877579182015b8281111561487657825182559160200191906001019061485b565b5b5090506148849190614a85565b5090565b828054600181600116156101000203166002900490600052602060002090601f016020900481019282601f106148c957805160ff19168380011785556148f7565b828001600101855582156148f7579182015b828111156148f65782518255916020019190600101906148db565b5b5090506149049190614a85565b5090565b604051806102000160405280606081526020016000815260200160008152602001606081526020016060815260200160608152602001606081526020016060815260200160608152602001606081526020016060815260200160608152602001606081526020016060815260200160608152602001606081525090565b828054600181600116156101000203166002900490600052602060002090601f016020900481019282601f106149c657805160ff19168380011785556149f4565b828001600101855582156149f4579182015b828111156149f35782518255916020019190600101906149d8565b5b509050614a019190614a85565b5090565b828054600181600116156101000203166002900490600052602060002090601f016020900481019282601f10614a4657805160ff1916838001178555614a74565b82800160010185558215614a74579182015b82811115614a73578251825591602001919060010190614a58565b5b509050614a819190614a85565b5090565b614aa791905b80821115614aa3576000816000905550600101614a8b565b5090565b9056fea264697066735822122093f1632d35cd71221036a41d58b7c88178ea8bcd42ba6f25efd7cf7b32eb422b64736f6c63430006000033",
  "source": "pragma solidity ^0.6.0;\n\ncontract PatientManagement {\n    address public owner;\n    Patient[] patients;\n    struct Patient {\n        string name;\n        uint256 dob; // timestamp\n        uint256 gender; //1:Male, 2: Female, 3: Other\n        string homeAddress;\n        string emailAddress;\n        string occupation;\n        string emergencyContact;\n        bytes welfareNumber;\n        bytes phone;\n        bytes creditCardNumber;\n        bytes bankInformation;\n        bytes allergies;\n        bytes pensionCardNumber;\n        bytes medicareNumber;\n        bytes nationality;\n        bytes maritalStatus;//:Single, Married, Single Parents\n\n    }\n\n    modifier onlyOwner() {\n        require(msg.sender == owner, \"Not owner\");\n        _;\n    }\n\n    modifier validId(uint256 id) {\n        require(id > 0 && id < patients.length, \"Invalid id\");\n        _;\n    }\n    modifier validGender(uint256 gender) {\n        require(gender >= 1 && gender <= 3, \"Invalid gender\");\n        _;\n    }\n    event NewPatient(uint256 id);\n    event ChangeOwner(address _newOwner);\n\n    constructor() public {\n        owner = msg.sender;\n\n        // Add a fake info to make patient id always start from 1\n        Patient memory p;\n        p.name = \"\";\n        patients.push(p);\n    }\n\n    function changeOwner(address _newOwner) public onlyOwner() {\n        owner = _newOwner;\n        emit ChangeOwner(owner);\n    }\n\n    /**\n     * Add new patient with given public information\n     */\n    function addNewPatient(\n        string memory _name,\n        uint256 _dob,\n        string memory _address,\n        string memory _email,\n        uint256 _gender, //1:Male, 2: Female, 3: Other\n        string memory _occupation,\n        string memory _emergencyContact\n    ) public validGender(_gender) onlyOwner() returns(uint256) {\n        Patient memory p;\n        p.name = _name;\n        p.dob = _dob;\n        p.homeAddress = _address;\n        p.emailAddress = _email;\n        p.gender = _gender;\n        p.occupation = _occupation;\n        p.emergencyContact = _emergencyContact;\n\n        patients.push(p);\n        uint256 id = patients.length - 1;\n        emit NewPatient(id);\n        return id;\n    }\n\n    function updateName(uint256 id, string memory _newName) public onlyOwner() validId(id) {\n        Patient storage p = patients[id];\n        p.name = _newName;\n    }\n    function getName(uint256 id) public validId(id) view returns (string memory) {\n        return patients[id].name;\n    }\n\n    function updateDOB(uint256 id, uint256 _newDOB) public onlyOwner() validId(id) {\n        Patient storage p = patients[id];\n        p.dob = _newDOB;\n    }\n    function getDOB(uint256 id) public validId(id) view returns (uint256) {\n        return patients[id].dob;\n    }\n\n    function updateAddress(uint256 id, string memory _newAddress) public onlyOwner() validId(id) {\n        Patient storage p = patients[id];\n        p.homeAddress = _newAddress;\n    }\n    function getAddress(uint256 id) public validId(id) view returns (string memory) {\n        return patients[id].homeAddress;\n    }\n\n    function updateEmail(uint256 id, string memory _newEmail) public onlyOwner() validId(id) {\n        Patient storage p = patients[id];\n        p.emailAddress = _newEmail;\n    }\n    function getEmail(uint256 id) public validId(id) view returns (string memory) {\n        return patients[id].emailAddress;\n    }\n\n    function updateGender(uint256 id, uint256 _newGender) public onlyOwner() validId(id) validGender(_newGender) {\n        Patient storage p = patients[id];\n        p.gender = _newGender;\n    }\n    function getGender(uint256 id) public validId(id) view returns (uint256) {\n        return patients[id].gender;\n    }\n\n    function updateOccupation(uint256 id, string memory _newOccupation) public onlyOwner() validId(id) {\n        Patient storage p = patients[id];\n        p.occupation = _newOccupation;\n    }\n    function getOccupation(uint256 id) public validId(id) view returns (string memory) {\n        return patients[id].occupation;\n    }\n\n    function updateEmergencyContact(uint256 id, string memory _newEmergencyContact) public onlyOwner() validId(id) {\n        Patient storage p = patients[id];\n        p.emergencyContact = _newEmergencyContact;\n    }\n    function getEmergencyContact(uint256 id) public validId(id) view returns (string memory) {\n        return patients[id].emergencyContact;\n    }\n\n    // Encrypted data get/set functions\n    function updatePhone(uint256 id, bytes memory _newPhone) public onlyOwner() validId(id) {\n        Patient storage p = patients[id];\n        p.phone = _newPhone;\n    }\n    function getPhone(uint256 id) public validId(id) view returns (bytes memory) {\n        return patients[id].phone;\n    }\n\n    function updateCreditCardNumber(uint256 id, bytes memory _creditCardNumber) public onlyOwner() validId(id) {\n        Patient storage p = patients[id];\n        p.creditCardNumber = _creditCardNumber;\n    }\n    function getCreditCardNumber(uint256 id) public validId(id) view returns (bytes memory) {\n        return patients[id].creditCardNumber;\n    }\n\n    function updateBankInformation(uint256 id, bytes memory _bankInformation) public onlyOwner() validId(id) {\n        Patient storage p = patients[id];\n        p.bankInformation = _bankInformation;\n    }\n    function getBankInformation(uint256 id) public validId(id) view returns (bytes memory) {\n        return patients[id].bankInformation;\n    }\n\n    function updateAllergies(uint256 id, bytes memory _allergies) public onlyOwner() validId(id) {\n        Patient storage p = patients[id];\n        p.allergies = _allergies;\n    }\n    function getAllergies(uint256 id) public validId(id) view returns (bytes memory) {\n        return patients[id].allergies;\n    }\n\n    function updatePensionCardNumber(uint256 id, bytes memory _pensionCardNumber) public onlyOwner() validId(id) {\n        Patient storage p = patients[id];\n        p.pensionCardNumber = _pensionCardNumber;\n    }\n    function getPensionCardNumber(uint256 id) public validId(id) view returns (bytes memory) {\n        return patients[id].pensionCardNumber;\n    }\n\n    function updateMedicareNumber(uint256 id, bytes memory _medicareNumber) public onlyOwner() validId(id) {\n        Patient storage p = patients[id];\n        p.medicareNumber = _medicareNumber;\n    }\n    function getMedicareNumber(uint256 id) public validId(id) view returns (bytes memory) {\n        return patients[id].medicareNumber;\n    }\n\n    function updateNationality(uint256 id, bytes memory _nationality) public onlyOwner() validId(id) {\n        Patient storage p = patients[id];\n        p.nationality = _nationality;\n    }\n    function getNationality(uint256 id) public validId(id) view returns (bytes memory) {\n        return patients[id].nationality;\n    }\n\n    function updateMaritalStatus(uint256 id, bytes memory _maritalStatus) public onlyOwner() validId(id) {\n        Patient storage p = patients[id];\n        p.maritalStatus = _maritalStatus;\n    }\n    function getMaritalStatus(uint256 id) public validId(id) view returns (bytes memory) {\n        return patients[id].maritalStatus;\n    }\n\n}\n",
  "sourcePath": "/media/phu/62EEBE76EEBE4259/code/contracts/secret-sc/contracts/PatientManagement.sol",
  "compiler": {
    "name": "solc",
    "version": "0.6.0+commit.26b70077.Emscripten.clang"
  },
  "schemaVersion": "3.0.23",
  "updatedAt": "2020-05-15T14:53:43.152Z",
  "devdoc": {
    "methods": {}
  },
  "userdoc": {
    "methods": {
      "addNewPatient(string,uint256,string,string,uint256,string,string)": {
        "notice": "Add new patient with given public information"
      }
    }
  }
}